{
  "contractName": "Remittance",
  "abi": [
    {
      "anonymous": false,
      "inputs": [
        {
          "indexed": true,
          "name": "_hash",
          "type": "bytes32"
        },
        {
          "indexed": true,
          "name": "alice",
          "type": "address"
        },
        {
          "indexed": false,
          "name": "amount",
          "type": "uint256"
        }
      ],
      "name": "LogNewDeposit",
      "type": "event"
    },
    {
      "anonymous": false,
      "inputs": [
        {
          "indexed": true,
          "name": "_hash",
          "type": "bytes32"
        },
        {
          "indexed": true,
          "name": "carol",
          "type": "address"
        },
        {
          "indexed": false,
          "name": "amount",
          "type": "uint256"
        }
      ],
      "name": "LogWithdrawAmount",
      "type": "event"
    },
    {
      "constant": false,
      "inputs": [
        {
          "name": "_hash",
          "type": "bytes32"
        }
      ],
      "name": "deposit",
      "outputs": [],
      "payable": true,
      "stateMutability": "payable",
      "type": "function"
    },
    {
      "constant": false,
      "inputs": [
        {
          "name": "password",
          "type": "string"
        }
      ],
      "name": "withdraw",
      "outputs": [],
      "payable": false,
      "stateMutability": "nonpayable",
      "type": "function"
    }
  ],
  "bytecode": "0x608060405234801561001057600080fd5b50610424806100206000396000f30060806040526004361061004c576000357c0100000000000000000000000000000000000000000000000000000000900463ffffffff16806331fb67c214610051578063b214faa5146100ba575b600080fd5b34801561005d57600080fd5b506100b8600480360381019080803590602001908201803590602001908080601f01602080910402602001604051908101604052809392919081815260200183838082843782019150505050505091929192905050506100de565b005b6100dc60048036038101908080356000191690602001909291905050506102f7565b005b60008060003384604051602001808373ffffffffffffffffffffffffffffffffffffffff1673ffffffffffffffffffffffffffffffffffffffff166c0100000000000000000000000002815260140182805190602001908083835b60208310151561015e5780518252602082019150602081019050602083039250610139565b6001836020036101000a038019825116818451168082178552505050505050905001925050506040516020818303038152906040526040518082805190602001908083835b6020831015156101c857805182526020820191506020810190506020830392506101a3565b6001836020036101000a0380198251168184511680821785525050505050509050019150506040518091039020925060008084600019166000191681526020019081526020016000209150600115158260010160009054906101000a900460ff16151514151561023757600080fd5b8160000154905060008111151561024d57600080fd5b600082600001819055503373ffffffffffffffffffffffffffffffffffffffff1683600019167f0acee9e8aaeaf1ef27249c1ff6f310ee5cf9ef8b1294795c4561a4cbc2bc26ab836040518082815260200191505060405180910390a33373ffffffffffffffffffffffffffffffffffffffff166108fc829081150290604051600060405180830381858888f193505050501580156102f0573d6000803e3d6000fd5b5050505050565b60003411151561030657600080fd5b60001515600080836000191660001916815260200190815260200160002060010160009054906101000a900460ff16151514151561034357600080fd5b3373ffffffffffffffffffffffffffffffffffffffff1681600019167f8e49af163a79ee48c022edfc3b2d1b6123f9437808cb2d557b7f1aa965581ab2346040518082815260200191505060405180910390a360408051908101604052803481526020016001151581525060008083600019166000191681526020019081526020016000206000820151816000015560208201518160010160006101000a81548160ff021916908315150217905550905050505600a165627a7a723058204bc436952bab8a660dc7e7649c8879f75bde662274d459a51db82afd426962630029",
  "source": "pragma solidity ^0.4.23;\n\ncontract Remittance {\n    \n    struct Payment{\n\n        uint amount;\n        bool exists;\n    }\n\n    mapping(bytes32 => Payment) payments;\n\n    event LogNewDeposit(bytes32 indexed _hash, address indexed alice, uint amount);\n    event LogWithdrawAmount(bytes32 indexed _hash,address indexed carol, uint amount);\n\n    function deposit(bytes32 _hash) public payable{\n\n        require(msg.value > 0);\n        require(payments[_hash].exists == false);\n\n        emit LogNewDeposit(_hash, msg.sender, msg.value);\n\n        payments[_hash] = Payment({\n            amount : msg.value,\n            exists : true\n        });\n    }\n\n    function withdraw(string password) public {\n\n        bytes32 payment_hash  = keccak256(abi.encodePacked(msg.sender,password));\n\n        Payment storage pay = payments[payment_hash];\n        require(pay.exists == true);\n\n        uint amount = pay.amount;\n        require(amount > 0);\n        \n        pay.amount = 0;\n        emit LogWithdrawAmount(payment_hash,msg.sender,amount);\n        msg.sender.transfer(amount);\n    }\n}",
  "sourcePath": "/home/ankush/dapps/sol/remittance/contracts/Remittance.sol",
  "compiler": {
    "name": "solc",
    "version": "0.4.24+commit.e67f0147.Emscripten.clang"
  },
  "schemaVersion": "2.0.1",
  "updatedAt": "2018-11-17T22:42:59.946Z"
}