{
  "contractName": "Remittance",
  "abi": [
    {
      "constant": false,
      "inputs": [
        {
          "name": "_carol",
          "type": "address"
        },
        {
          "name": "_hash",
          "type": "bytes32"
        }
      ],
      "name": "deposit",
      "outputs": [
        {
          "name": "",
          "type": "uint256"
        }
      ],
      "payable": true,
      "stateMutability": "payable",
      "type": "function"
    },
    {
      "constant": false,
      "inputs": [
        {
          "name": "payment_id",
          "type": "uint256"
        },
        {
          "name": "password1",
          "type": "string"
        },
        {
          "name": "password2",
          "type": "string"
        }
      ],
      "name": "withdraw",
      "outputs": [],
      "payable": false,
      "stateMutability": "nonpayable",
      "type": "function"
    }
  ],
  "bytecode": "0x608060405234801561001057600080fd5b506106b8806100206000396000f30060806040526004361061004c576000357c0100000000000000000000000000000000000000000000000000000000900463ffffffff1680639a493e7514610051578063b9e1aa031461010a575b600080fd5b34801561005d57600080fd5b5061010860048036038101908080359060200190929190803590602001908201803590602001908080601f0160208091040260200160405190810160405280939291908181526020018383808284378201915050505050509192919290803590602001908201803590602001908080601f0160208091040260200160405190810160405280939291908181526020018383808284378201915050505050509192919290505050610162565b005b61014c600480360381019080803573ffffffffffffffffffffffffffffffffffffffff16906020019092919080356000191690602001909291905050506104e9565b6040518082815260200191505060405180910390f35b61016a610634565b600080805490508510151561017e57600080fd5b60008581548110151561018d57fe5b9060005260206000209060040201608060405190810160405290816000820160009054906101000a900473ffffffffffffffffffffffffffffffffffffffff1673ffffffffffffffffffffffffffffffffffffffff1673ffffffffffffffffffffffffffffffffffffffff1681526020016001820160009054906101000a900473ffffffffffffffffffffffffffffffffffffffff1673ffffffffffffffffffffffffffffffffffffffff1673ffffffffffffffffffffffffffffffffffffffff16815260200160028201548152602001600382015460001916600019168152505091503373ffffffffffffffffffffffffffffffffffffffff16826020015173ffffffffffffffffffffffffffffffffffffffff161415156102af57600080fd5b816000015182602001518585604051602001808573ffffffffffffffffffffffffffffffffffffffff1673ffffffffffffffffffffffffffffffffffffffff166c010000000000000000000000000281526014018473ffffffffffffffffffffffffffffffffffffffff1673ffffffffffffffffffffffffffffffffffffffff166c0100000000000000000000000002815260140183805190602001908083835b6020831015156103755780518252602082019150602081019050602083039250610350565b6001836020036101000a03801982511681845116808217855250505050505090500182805190602001908083835b6020831015156103c857805182526020820191506020810190506020830392506103a3565b6001836020036101000a0380198251168184511680821785525050505050509050019450505050506040516020818303038152906040526040518082805190602001908083835b602083101515610434578051825260208201915060208101905060208303925061040f565b6001836020036101000a03801982511681845116808217855250505050505090500191505060405180910390206000191682606001516000191614151561047a57600080fd5b8160400151905060008111151561049057600080fd5b60008260400181815250503373ffffffffffffffffffffffffffffffffffffffff166108fc829081150290604051600060405180830381858888f193505050501580156104e1573d6000803e3d6000fd5b505050505050565b600080341115156104f957600080fd5b60006080604051908101604052803373ffffffffffffffffffffffffffffffffffffffff1681526020018573ffffffffffffffffffffffffffffffffffffffff16815260200134815260200184600019168152509080600181540180825580915050906001820390600052602060002090600402016000909192909190915060008201518160000160006101000a81548173ffffffffffffffffffffffffffffffffffffffff021916908373ffffffffffffffffffffffffffffffffffffffff16021790555060208201518160010160006101000a81548173ffffffffffffffffffffffffffffffffffffffff021916908373ffffffffffffffffffffffffffffffffffffffff1602179055506040820151816002015560608201518160030190600019169055505050600160008054905003905092915050565b608060405190810160405280600073ffffffffffffffffffffffffffffffffffffffff168152602001600073ffffffffffffffffffffffffffffffffffffffff168152602001600081526020016000801916815250905600a165627a7a72305820647d34606aed306728a3e0982e6ed24e2d4f47802f679904f243bbd620e51c720029",
  "source": "pragma solidity ^0.4.23;\n\ncontract Remittance {\n    \n    struct Payment{\n\n        address alice;\n        address carol;\n        uint amount;\n        bytes32 secureHash;\n    }\n\n    Payment[] payments;\n\n    function deposit(address _carol,bytes32 _hash) public payable returns(uint){\n\n        require(msg.value > 0);\n\n        payments.push(Payment(msg.sender,_carol,msg.value,_hash));\n        return payments.length-1;\n    }\n\n    function withdraw(uint payment_id,string password1,string password2) public {\n\n        require(payment_id < payments.length);\n        Payment memory pay = payments[payment_id];\n        require(pay.carol == msg.sender);\n        require(pay.secureHash == keccak256(abi.encodePacked(pay.alice,pay.carol,password1,password2)));\n        uint amount = pay.amount;\n        require(amount > 0);\n        pay.amount = 0;\n        msg.sender.transfer(amount);\n    }\n}",
  "sourcePath": "/home/ankush/dapps/sol/remittance/contracts/Remittance.sol",
  "compiler": {
    "name": "solc",
    "version": "0.4.24+commit.e67f0147.Emscripten.clang"
  },
  "schemaVersion": "2.0.1",
  "updatedAt": "2018-11-17T09:29:02.669Z"
}