{
  "contractName": "Remittance",
  "abi": [
    {
      "anonymous": false,
      "inputs": [
        {
          "indexed": true,
          "name": "_hash",
          "type": "bytes32"
        },
        {
          "indexed": true,
          "name": "alice",
          "type": "address"
        },
        {
          "indexed": false,
          "name": "amount",
          "type": "uint256"
        }
      ],
      "name": "LogFundsDeposited",
      "type": "event"
    },
    {
      "anonymous": false,
      "inputs": [
        {
          "indexed": true,
          "name": "_hash",
          "type": "bytes32"
        },
        {
          "indexed": true,
          "name": "carol",
          "type": "address"
        },
        {
          "indexed": false,
          "name": "amount",
          "type": "uint256"
        }
      ],
      "name": "LogFundsWithdrawn",
      "type": "event"
    },
    {
      "constant": true,
      "inputs": [
        {
          "name": "a",
          "type": "address"
        },
        {
          "name": "b",
          "type": "bytes32"
        }
      ],
      "name": "hashing",
      "outputs": [
        {
          "name": "",
          "type": "bytes32"
        }
      ],
      "payable": false,
      "stateMutability": "view",
      "type": "function"
    },
    {
      "constant": false,
      "inputs": [
        {
          "name": "_hash",
          "type": "bytes32"
        }
      ],
      "name": "deposit",
      "outputs": [],
      "payable": true,
      "stateMutability": "payable",
      "type": "function"
    },
    {
      "constant": false,
      "inputs": [
        {
          "name": "password",
          "type": "bytes32"
        }
      ],
      "name": "withdraw",
      "outputs": [],
      "payable": false,
      "stateMutability": "nonpayable",
      "type": "function"
    }
  ],
  "bytecode": "0x608060405234801561001057600080fd5b50610552806100206000396000f300608060405260043610610057576000357c0100000000000000000000000000000000000000000000000000000000900463ffffffff1680630d9e87211461005c5780638e19899e146100c9578063b214faa5146100fa575b600080fd5b34801561006857600080fd5b506100ab600480360381019080803573ffffffffffffffffffffffffffffffffffffffff169060200190929190803560001916906020019092919050505061011e565b60405180826000191660001916815260200191505060405180910390f35b3480156100d557600080fd5b506100f86004803603810190808035600019169060200190929190505050610238565b005b61011c600480360381019080803560001916906020019092919050505061042b565b005b6000828230604051602001808473ffffffffffffffffffffffffffffffffffffffff1673ffffffffffffffffffffffffffffffffffffffff166c0100000000000000000000000002815260140183600019166000191681526020018273ffffffffffffffffffffffffffffffffffffffff1673ffffffffffffffffffffffffffffffffffffffff166c0100000000000000000000000002815260140193505050506040516020818303038152906040526040518082805190602001908083835b60208310151561020357805182526020820191506020810190506020830392506101de565b6001836020036101000a0380198251168184511680821785525050505050509050019150506040518091039020905092915050565b6000806000338430604051602001808473ffffffffffffffffffffffffffffffffffffffff1673ffffffffffffffffffffffffffffffffffffffff166c0100000000000000000000000002815260140183600019166000191681526020018273ffffffffffffffffffffffffffffffffffffffff1673ffffffffffffffffffffffffffffffffffffffff166c0100000000000000000000000002815260140193505050506040516020818303038152906040526040518082805190602001908083835b60208310151561032057805182526020820191506020810190506020830392506102fb565b6001836020036101000a03801982511681845116808217855250505050505090500191505060405180910390209250600080846000191660001916815260200190815260200160002091508160000154905060008111151561038157600080fd5b600082600001819055503373ffffffffffffffffffffffffffffffffffffffff1683600019167f0355afbb4d02cce7c76448675fa4be6e14456fdc22414c712e7c2c5f6e70b4ac836040518082815260200191505060405180910390a33373ffffffffffffffffffffffffffffffffffffffff166108fc829081150290604051600060405180830381858888f19350505050158015610424573d6000803e3d6000fd5b5050505050565b60003411151561043a57600080fd5b600080826000191660001916815260200190815260200160002060010160009054906101000a900460ff1615151561047157600080fd5b3373ffffffffffffffffffffffffffffffffffffffff1681600019167fda54bef80af9f5e09a9ecfbd4164bda7e9311febc06c8903f49ef5dbb62b8ada346040518082815260200191505060405180910390a360408051908101604052803481526020016001151581525060008083600019166000191681526020019081526020016000206000820151816000015560208201518160010160006101000a81548160ff021916908315150217905550905050505600a165627a7a7230582060968cc46f0e1895e53607b5c3a3884c6a6b9c339c2aa6fd4fa61466ff9cabcd0029",
  "source": "pragma solidity ^0.4.23;\n\ncontract Remittance {\n    \n    struct PaymentStruct{\n\n        uint amount;\n        bool exists;\n    }\n\n    mapping(bytes32 => PaymentStruct) paymentStructs;\n\n    event LogFundsDeposited(bytes32 indexed _hash, address indexed alice, uint amount);\n    event LogFundsWithdrawn(bytes32 indexed _hash,address indexed carol, uint amount);\n\n\n    function hashing(address a,bytes32 b) public view returns(bytes32){\n        \n        return keccak256(abi.encodePacked(a,b,address(this)));\n    }\n\n    function deposit(bytes32 _hash) public payable{\n\n        require(msg.value > 0);\n        require(!paymentStructs[_hash].exists);\n\n        emit LogFundsDeposited(_hash, msg.sender, msg.value);\n\n        paymentStructs[_hash] = PaymentStruct({\n            amount : msg.value,\n            exists : true\n        });\n    }\n\n    function withdraw(bytes32 password) public {\n\n        bytes32 payment_hash  = keccak256(abi.encodePacked(msg.sender,password,address(this)));\n\n        PaymentStruct storage pay = paymentStructs[payment_hash];\n\n        uint amount = pay.amount;\n        require(amount > 0);\n        \n        pay.amount = 0;\n        emit LogFundsWithdrawn(payment_hash,msg.sender,amount);\n        msg.sender.transfer(amount);\n    }\n}",
  "sourcePath": "/home/ankush/dapps/sol/remittance/contracts/Remittance.sol",
  "compiler": {
    "name": "solc",
    "version": "0.4.24+commit.e67f0147.Emscripten.clang"
  },
  "schemaVersion": "2.0.1",
  "updatedAt": "2018-11-19T15:37:34.609Z"
}